{
  "contractName": "CrowdFundingWithDeadline",
  "abi": [
    {
      "inputs": [
        {
          "internalType": "string",
          "name": "contractName",
          "type": "string"
        },
        {
          "internalType": "uint256",
          "name": "targetAmountEth",
          "type": "uint256"
        },
        {
          "internalType": "uint256",
          "name": "durationInMin",
          "type": "uint256"
        },
        {
          "internalType": "address payable",
          "name": "beneficiaryAddress",
          "type": "address"
        }
      ],
      "stateMutability": "nonpayable",
      "type": "constructor"
    },
    {
      "anonymous": false,
      "inputs": [
        {
          "indexed": false,
          "internalType": "address",
          "name": "addr",
          "type": "address"
        },
        {
          "indexed": false,
          "internalType": "uint256",
          "name": "totalCollected",
          "type": "uint256"
        },
        {
          "indexed": false,
          "internalType": "bool",
          "name": "succeeded",
          "type": "bool"
        }
      ],
      "name": "CampaignFinished",
      "type": "event"
    },
    {
      "inputs": [
        {
          "internalType": "address",
          "name": "",
          "type": "address"
        }
      ],
      "name": "amounts",
      "outputs": [
        {
          "internalType": "uint256",
          "name": "",
          "type": "uint256"
        }
      ],
      "stateMutability": "view",
      "type": "function",
      "constant": true
    },
    {
      "inputs": [],
      "name": "beneficiary",
      "outputs": [
        {
          "internalType": "address payable",
          "name": "",
          "type": "address"
        }
      ],
      "stateMutability": "view",
      "type": "function",
      "constant": true
    },
    {
      "inputs": [],
      "name": "collected",
      "outputs": [
        {
          "internalType": "bool",
          "name": "",
          "type": "bool"
        }
      ],
      "stateMutability": "view",
      "type": "function",
      "constant": true
    },
    {
      "inputs": [],
      "name": "fundingDeadline",
      "outputs": [
        {
          "internalType": "uint256",
          "name": "",
          "type": "uint256"
        }
      ],
      "stateMutability": "view",
      "type": "function",
      "constant": true
    },
    {
      "inputs": [],
      "name": "name",
      "outputs": [
        {
          "internalType": "string",
          "name": "",
          "type": "string"
        }
      ],
      "stateMutability": "view",
      "type": "function",
      "constant": true
    },
    {
      "inputs": [],
      "name": "state",
      "outputs": [
        {
          "internalType": "enum CrowdFundingWithDeadline.State",
          "name": "",
          "type": "uint8"
        }
      ],
      "stateMutability": "view",
      "type": "function",
      "constant": true
    },
    {
      "inputs": [],
      "name": "targetAmount",
      "outputs": [
        {
          "internalType": "uint256",
          "name": "",
          "type": "uint256"
        }
      ],
      "stateMutability": "view",
      "type": "function",
      "constant": true
    },
    {
      "inputs": [],
      "name": "totalCollected",
      "outputs": [
        {
          "internalType": "uint256",
          "name": "",
          "type": "uint256"
        }
      ],
      "stateMutability": "view",
      "type": "function",
      "constant": true
    },
    {
      "inputs": [],
      "name": "contribute",
      "outputs": [],
      "stateMutability": "payable",
      "type": "function",
      "payable": true
    },
    {
      "inputs": [],
      "name": "collect",
      "outputs": [],
      "stateMutability": "nonpayable",
      "type": "function"
    },
    {
      "inputs": [],
      "name": "withdraw",
      "outputs": [],
      "stateMutability": "nonpayable",
      "type": "function"
    },
    {
      "inputs": [],
      "name": "finishCrowdFunding",
      "outputs": [],
      "stateMutability": "nonpayable",
      "type": "function"
    },
    {
      "inputs": [],
      "name": "getBlockTime",
      "outputs": [
        {
          "internalType": "uint256",
          "name": "",
          "type": "uint256"
        }
      ],
      "stateMutability": "view",
      "type": "function",
      "constant": true
    },
    {
      "inputs": [],
      "name": "beforeDeadline",
      "outputs": [
        {
          "internalType": "bool",
          "name": "",
          "type": "bool"
        }
      ],
      "stateMutability": "view",
      "type": "function",
      "constant": true
    }
  ],
  "bytecode": "0x60806040523480156200001157600080fd5b506040516200138b3803806200138b83398181016040528101906200003791906200032f565b83600090805190602001906200004f929190620001ff565b5073__Utils_________________________________63d8916bb9846040518263ffffffff1660e01b8152600401620000899190620003f1565b60206040518083038186803b158015620000a257600080fd5b505af4158015620000b7573d6000803e3d6000fd5b505050506040513d601f19601f82011682018060405250810190620000dd9190620003b4565b60018190555073__Utils_________________________________63cd6fb042836040518263ffffffff1660e01b81526004016200011c9190620003f1565b60206040518083038186803b1580156200013557600080fd5b505af41580156200014a573d6000803e3d6000fd5b505050506040513d601f19601f82011682018060405250810190620001709190620003b4565b62000180620001f760201b60201c565b0160028190555080600360006101000a81548173ffffffffffffffffffffffffffffffffffffffff021916908373ffffffffffffffffffffffffffffffffffffffff1602179055506000600360146101000a81548160ff02191690836003811115620001e857fe5b02179055505050505062000511565b600042905090565b828054600181600116156101000203166002900490600052602060002090601f016020900481019282601f106200024257805160ff191683800117855562000273565b8280016001018555821562000273579182015b828111156200027257825182559160200191906001019062000255565b5b50905062000282919062000286565b5090565b5b80821115620002a157600081600090555060010162000287565b5090565b600081519050620002b681620004dd565b92915050565b600082601f830112620002ce57600080fd5b8151620002e5620002df826200043c565b6200040e565b915080825260208301602083018583830111156200030257600080fd5b6200030f838284620004a7565b50505092915050565b6000815190506200032981620004f7565b92915050565b600080600080608085870312156200034657600080fd5b600085015167ffffffffffffffff8111156200036157600080fd5b6200036f87828801620002bc565b9450506020620003828782880162000318565b9350506040620003958782880162000318565b9250506060620003a887828801620002a5565b91505092959194509250565b600060208284031215620003c757600080fd5b6000620003d78482850162000318565b91505092915050565b620003eb816200049d565b82525050565b6000602082019050620004086000830184620003e0565b92915050565b6000604051905081810181811067ffffffffffffffff821117156200043257600080fd5b8060405250919050565b600067ffffffffffffffff8211156200045457600080fd5b601f19601f8301169050602081019050919050565b600062000476826200047d565b9050919050565b600073ffffffffffffffffffffffffffffffffffffffff82169050919050565b6000819050919050565b60005b83811015620004c7578082015181840152602081019050620004aa565b83811115620004d7576000848401525b50505050565b620004e88162000469565b8114620004f457600080fd5b50565b62000502816200049d565b81146200050e57600080fd5b50565b610e6a80620005216000396000f3fe6080604052600436106100dd5760003560e01c806384bcefd41161007f578063c19d93fb11610059578063c19d93fb1461027a578063d7bb99ba146102a5578063e29eb836146102af578063e5225381146102da576100dd565b806384bcefd4146101f957806387ceff0914610224578063953b8fb81461024f576100dd565b80633ccfd60b116100bb5780633ccfd60b1461014f57806355a3b2c11461016657806368bc0041146101a3578063796b23bb146101ce576100dd565b806306fdde03146100e2578063083dca111461010d57806338af3eed14610124575b600080fd5b3480156100ee57600080fd5b506100f76102f1565b6040516101049190610c3e565b60405180910390f35b34801561011957600080fd5b5061012261038f565b005b34801561013057600080fd5b506101396104f1565b6040516101469190610bb6565b60405180910390f35b34801561015b57600080fd5b50610164610517565b005b34801561017257600080fd5b5061018d600480360381019061018891906109e3565b61070d565b60405161019a9190610ce0565b60405180910390f35b3480156101af57600080fd5b506101b8610725565b6040516101c59190610c08565b60405180910390f35b3480156101da57600080fd5b506101e3610738565b6040516101f09190610ce0565b60405180910390f35b34801561020557600080fd5b5061020e61073e565b60405161021b9190610c08565b60405180910390f35b34801561023057600080fd5b50610239610751565b6040516102469190610ce0565b60405180910390f35b34801561025b57600080fd5b50610264610759565b6040516102719190610ce0565b60405180910390f35b34801561028657600080fd5b5061028f61075f565b60405161029c9190610c23565b60405180910390f35b6102ad610772565b005b3480156102bb57600080fd5b506102c46108a9565b6040516102d19190610ce0565b60405180910390f35b3480156102e657600080fd5b506102ef6108af565b005b60008054600181600116156101000203166002900480601f0160208091040260200160405190810160405280929190818152602001828054600181600116156101000203166002900480156103875780601f1061035c57610100808354040283529160200191610387565b820191906000526020600020905b81548152906001019060200180831161036a57829003601f168201915b505050505081565b600080600381111561039d57fe5b600360149054906101000a900460ff1660038111156103b857fe5b146103f8576040517f08c379a00000000000000000000000000000000000000000000000000000000081526004016103ef90610c80565b60405180910390fd5b610400610725565b15610440576040517f08c379a000000000000000000000000000000000000000000000000000000000815260040161043790610cc0565b60405180910390fd5b600560009054906101000a900460ff1661047d576001600360146101000a81548160ff0219169083600381111561047357fe5b02179055506104a2565b6002600360146101000a81548160ff0219169083600381111561049c57fe5b02179055505b7f6fa7e87ebbd87ed4f1c40bba63144f68fd2bb022fb748ab3b61b5411c39bd47433600654600560009054906101000a900460ff166040516104e693929190610bd1565b60405180910390a150565b600360009054906101000a900473ffffffffffffffffffffffffffffffffffffffff1681565b600180600381111561052557fe5b600360149054906101000a900460ff16600381111561054057fe5b14610580576040517f08c379a000000000000000000000000000000000000000000000000000000000815260040161057790610c80565b60405180910390fd5b6000600460003373ffffffffffffffffffffffffffffffffffffffff1673ffffffffffffffffffffffffffffffffffffffff1681526020019081526020016000205411610602576040517f08c379a00000000000000000000000000000000000000000000000000000000081526004016105f990610ca0565b60405180910390fd5b6000600460003373ffffffffffffffffffffffffffffffffffffffff1673ffffffffffffffffffffffffffffffffffffffff1681526020019081526020016000205490506000600460003373ffffffffffffffffffffffffffffffffffffffff1673ffffffffffffffffffffffffffffffffffffffff168152602001908152602001600020819055503373ffffffffffffffffffffffffffffffffffffffff166108fc829081150290604051600060405180830381858888f193505050506107095780600460003373ffffffffffffffffffffffffffffffffffffffff1673ffffffffffffffffffffffffffffffffffffffff168152602001908152602001600020819055505b5050565b60046020528060005260406000206000915090505481565b60006002546107326109c6565b10905090565b60025481565b600560009054906101000a900460ff1681565b600042905090565b60015481565b600360149054906101000a900460ff1681565b600080600381111561078057fe5b600360149054906101000a900460ff16600381111561079b57fe5b146107db576040517f08c379a00000000000000000000000000000000000000000000000000000000081526004016107d290610c80565b60405180910390fd5b6107e3610725565b610822576040517f08c379a000000000000000000000000000000000000000000000000000000000815260040161081990610c60565b60405180910390fd5b34600460003373ffffffffffffffffffffffffffffffffffffffff1673ffffffffffffffffffffffffffffffffffffffff1681526020019081526020016000206000828254019250508190555034600660008282540192505081905550600154600654106108a6576001600560006101000a81548160ff0219169083151502179055505b50565b60065481565b60028060038111156108bd57fe5b600360149054906101000a900460ff1660038111156108d857fe5b14610918576040517f08c379a000000000000000000000000000000000000000000000000000000000815260040161090f90610c80565b60405180910390fd5b600360009054906101000a900473ffffffffffffffffffffffffffffffffffffffff1673ffffffffffffffffffffffffffffffffffffffff166108fc6006549081150290604051600060405180830381858888f193505050501561099e5760038060146101000a81548160ff0219169083600381111561099457fe5b02179055506109c3565b6001600360146101000a81548160ff021916908360038111156109bd57fe5b02179055505b50565b600042905090565b6000813590506109dd81610e1d565b92915050565b6000602082840312156109f557600080fd5b6000610a03848285016109ce565b91505092915050565b610a1581610d84565b82525050565b610a2481610d29565b82525050565b610a3381610d3b565b82525050565b610a4281610d96565b82525050565b6000610a5382610cfb565b610a5d8185610d06565b9350610a6d818560208601610dcc565b610a7681610dff565b840191505092915050565b6000610a8e600883610d06565b91507f446561644c696e650000000000000000000000000000000000000000000000006000830152602082019050919050565b6000610ace600c83610d06565b91507f496e76616c6964205361746500000000000000000000000000000000000000006000830152602082019050919050565b6000610b0e601783610d06565b91507f4e6f7468696e672077617320636f6e74726962757465640000000000000000006000830152602082019050919050565b6000610b4e602883610d06565b91507f43616e6e6f742066696e6973682063616d706169676e206265666f726520612060008301527f646561646c696e650000000000000000000000000000000000000000000000006020830152604082019050919050565b610bb081610d7a565b82525050565b6000602082019050610bcb6000830184610a1b565b92915050565b6000606082019050610be66000830186610a0c565b610bf36020830185610ba7565b610c006040830184610a2a565b949350505050565b6000602082019050610c1d6000830184610a2a565b92915050565b6000602082019050610c386000830184610a39565b92915050565b60006020820190508181036000830152610c588184610a48565b905092915050565b60006020820190508181036000830152610c7981610a81565b9050919050565b60006020820190508181036000830152610c9981610ac1565b9050919050565b60006020820190508181036000830152610cb981610b01565b9050919050565b60006020820190508181036000830152610cd981610b41565b9050919050565b6000602082019050610cf56000830184610ba7565b92915050565b600081519050919050565b600082825260208201905092915050565b6000610d2282610d5a565b9050919050565b6000610d3482610d5a565b9050919050565b60008115159050919050565b6000819050610d5582610e10565b919050565b600073ffffffffffffffffffffffffffffffffffffffff82169050919050565b6000819050919050565b6000610d8f82610da8565b9050919050565b6000610da182610d47565b9050919050565b6000610db382610dba565b9050919050565b6000610dc582610d5a565b9050919050565b60005b83811015610dea578082015181840152602081019050610dcf565b83811115610df9576000848401525b50505050565b6000601f19601f8301169050919050565b60048110610e1a57fe5b50565b610e2681610d17565b8114610e3157600080fd5b5056fea26469706673582212205bba8c931b1be8524a49f54afc40eaa8d2f273f8aeba8cc4ea7d3e3f84083ccc64736f6c63430007000033",
  "deployedBytecode": "0x6080604052600436106100dd5760003560e01c806384bcefd41161007f578063c19d93fb11610059578063c19d93fb1461027a578063d7bb99ba146102a5578063e29eb836146102af578063e5225381146102da576100dd565b806384bcefd4146101f957806387ceff0914610224578063953b8fb81461024f576100dd565b80633ccfd60b116100bb5780633ccfd60b1461014f57806355a3b2c11461016657806368bc0041146101a3578063796b23bb146101ce576100dd565b806306fdde03146100e2578063083dca111461010d57806338af3eed14610124575b600080fd5b3480156100ee57600080fd5b506100f76102f1565b6040516101049190610c3e565b60405180910390f35b34801561011957600080fd5b5061012261038f565b005b34801561013057600080fd5b506101396104f1565b6040516101469190610bb6565b60405180910390f35b34801561015b57600080fd5b50610164610517565b005b34801561017257600080fd5b5061018d600480360381019061018891906109e3565b61070d565b60405161019a9190610ce0565b60405180910390f35b3480156101af57600080fd5b506101b8610725565b6040516101c59190610c08565b60405180910390f35b3480156101da57600080fd5b506101e3610738565b6040516101f09190610ce0565b60405180910390f35b34801561020557600080fd5b5061020e61073e565b60405161021b9190610c08565b60405180910390f35b34801561023057600080fd5b50610239610751565b6040516102469190610ce0565b60405180910390f35b34801561025b57600080fd5b50610264610759565b6040516102719190610ce0565b60405180910390f35b34801561028657600080fd5b5061028f61075f565b60405161029c9190610c23565b60405180910390f35b6102ad610772565b005b3480156102bb57600080fd5b506102c46108a9565b6040516102d19190610ce0565b60405180910390f35b3480156102e657600080fd5b506102ef6108af565b005b60008054600181600116156101000203166002900480601f0160208091040260200160405190810160405280929190818152602001828054600181600116156101000203166002900480156103875780601f1061035c57610100808354040283529160200191610387565b820191906000526020600020905b81548152906001019060200180831161036a57829003601f168201915b505050505081565b600080600381111561039d57fe5b600360149054906101000a900460ff1660038111156103b857fe5b146103f8576040517f08c379a00000000000000000000000000000000000000000000000000000000081526004016103ef90610c80565b60405180910390fd5b610400610725565b15610440576040517f08c379a000000000000000000000000000000000000000000000000000000000815260040161043790610cc0565b60405180910390fd5b600560009054906101000a900460ff1661047d576001600360146101000a81548160ff0219169083600381111561047357fe5b02179055506104a2565b6002600360146101000a81548160ff0219169083600381111561049c57fe5b02179055505b7f6fa7e87ebbd87ed4f1c40bba63144f68fd2bb022fb748ab3b61b5411c39bd47433600654600560009054906101000a900460ff166040516104e693929190610bd1565b60405180910390a150565b600360009054906101000a900473ffffffffffffffffffffffffffffffffffffffff1681565b600180600381111561052557fe5b600360149054906101000a900460ff16600381111561054057fe5b14610580576040517f08c379a000000000000000000000000000000000000000000000000000000000815260040161057790610c80565b60405180910390fd5b6000600460003373ffffffffffffffffffffffffffffffffffffffff1673ffffffffffffffffffffffffffffffffffffffff1681526020019081526020016000205411610602576040517f08c379a00000000000000000000000000000000000000000000000000000000081526004016105f990610ca0565b60405180910390fd5b6000600460003373ffffffffffffffffffffffffffffffffffffffff1673ffffffffffffffffffffffffffffffffffffffff1681526020019081526020016000205490506000600460003373ffffffffffffffffffffffffffffffffffffffff1673ffffffffffffffffffffffffffffffffffffffff168152602001908152602001600020819055503373ffffffffffffffffffffffffffffffffffffffff166108fc829081150290604051600060405180830381858888f193505050506107095780600460003373ffffffffffffffffffffffffffffffffffffffff1673ffffffffffffffffffffffffffffffffffffffff168152602001908152602001600020819055505b5050565b60046020528060005260406000206000915090505481565b60006002546107326109c6565b10905090565b60025481565b600560009054906101000a900460ff1681565b600042905090565b60015481565b600360149054906101000a900460ff1681565b600080600381111561078057fe5b600360149054906101000a900460ff16600381111561079b57fe5b146107db576040517f08c379a00000000000000000000000000000000000000000000000000000000081526004016107d290610c80565b60405180910390fd5b6107e3610725565b610822576040517f08c379a000000000000000000000000000000000000000000000000000000000815260040161081990610c60565b60405180910390fd5b34600460003373ffffffffffffffffffffffffffffffffffffffff1673ffffffffffffffffffffffffffffffffffffffff1681526020019081526020016000206000828254019250508190555034600660008282540192505081905550600154600654106108a6576001600560006101000a81548160ff0219169083151502179055505b50565b60065481565b60028060038111156108bd57fe5b600360149054906101000a900460ff1660038111156108d857fe5b14610918576040517f08c379a000000000000000000000000000000000000000000000000000000000815260040161090f90610c80565b60405180910390fd5b600360009054906101000a900473ffffffffffffffffffffffffffffffffffffffff1673ffffffffffffffffffffffffffffffffffffffff166108fc6006549081150290604051600060405180830381858888f193505050501561099e5760038060146101000a81548160ff0219169083600381111561099457fe5b02179055506109c3565b6001600360146101000a81548160ff021916908360038111156109bd57fe5b02179055505b50565b600042905090565b6000813590506109dd81610e1d565b92915050565b6000602082840312156109f557600080fd5b6000610a03848285016109ce565b91505092915050565b610a1581610d84565b82525050565b610a2481610d29565b82525050565b610a3381610d3b565b82525050565b610a4281610d96565b82525050565b6000610a5382610cfb565b610a5d8185610d06565b9350610a6d818560208601610dcc565b610a7681610dff565b840191505092915050565b6000610a8e600883610d06565b91507f446561644c696e650000000000000000000000000000000000000000000000006000830152602082019050919050565b6000610ace600c83610d06565b91507f496e76616c6964205361746500000000000000000000000000000000000000006000830152602082019050919050565b6000610b0e601783610d06565b91507f4e6f7468696e672077617320636f6e74726962757465640000000000000000006000830152602082019050919050565b6000610b4e602883610d06565b91507f43616e6e6f742066696e6973682063616d706169676e206265666f726520612060008301527f646561646c696e650000000000000000000000000000000000000000000000006020830152604082019050919050565b610bb081610d7a565b82525050565b6000602082019050610bcb6000830184610a1b565b92915050565b6000606082019050610be66000830186610a0c565b610bf36020830185610ba7565b610c006040830184610a2a565b949350505050565b6000602082019050610c1d6000830184610a2a565b92915050565b6000602082019050610c386000830184610a39565b92915050565b60006020820190508181036000830152610c588184610a48565b905092915050565b60006020820190508181036000830152610c7981610a81565b9050919050565b60006020820190508181036000830152610c9981610ac1565b9050919050565b60006020820190508181036000830152610cb981610b01565b9050919050565b60006020820190508181036000830152610cd981610b41565b9050919050565b6000602082019050610cf56000830184610ba7565b92915050565b600081519050919050565b600082825260208201905092915050565b6000610d2282610d5a565b9050919050565b6000610d3482610d5a565b9050919050565b60008115159050919050565b6000819050610d5582610e10565b919050565b600073ffffffffffffffffffffffffffffffffffffffff82169050919050565b6000819050919050565b6000610d8f82610da8565b9050919050565b6000610da182610d47565b9050919050565b6000610db382610dba565b9050919050565b6000610dc582610d5a565b9050919050565b60005b83811015610dea578082015181840152602081019050610dcf565b83811115610df9576000848401525b50505050565b6000601f19601f8301169050919050565b60048110610e1a57fe5b50565b610e2681610d17565b8114610e3157600080fd5b5056fea26469706673582212205bba8c931b1be8524a49f54afc40eaa8d2f273f8aeba8cc4ea7d3e3f84083ccc64736f6c63430007000033",
  "immutableReferences": {},
  "source": "// SPDX-License-Identifier: GPL-3.0\npragma solidity >=0.4.22 <0.8.0;\npragma experimental ABIEncoderV2;\nimport \"./Utils.sol\";\n\ncontract CrowdFundingWithDeadline {\n    using Utils for *;\n    event CampaignFinished(\n        address addr,\n        uint totalCollected,\n        bool succeeded\n    );\n    enum State \n    {\n        Ongoing, Failed, Succeeded, Paidout\n    }\n    string public name;\n    uint public targetAmount;\n    uint public fundingDeadline;\n    address payable public beneficiary;\n    State public state;\n    mapping (address => uint) public amounts;\n    bool public collected;\n    uint public totalCollected;\n\n    constructor(\n        string memory contractName,\n        uint targetAmountEth,\n        uint durationInMin,\n        address payable beneficiaryAddress\n    ) public {\n        name = contractName;\n        targetAmount = Utils.etherToWei(targetAmountEth);\n        fundingDeadline = currentTime() + Utils.minToSec(durationInMin);\n        beneficiary = beneficiaryAddress;\n        state = State.Ongoing;\n    }\n    modifier inState(State expectedSate){\n        require(state == expectedSate , \"Invalid Sate\");\n        _;\n    }\n    function contribute() public payable inState(State.Ongoing) {\n        require(beforeDeadline() , \"DeadLine\");\n        amounts[msg.sender] += msg.value;\n        totalCollected += msg.value;\n        if(totalCollected >= targetAmount)\n        {\n            collected = true;\n        }\n        \n    }\n    function collect() public inState(State.Succeeded) {\n        if(beneficiary.send(totalCollected))\n        {\n            state = State.Paidout;\n        }\n        else\n        {\n            state = State.Failed;\n        }\n    }\n    function withdraw() public inState(State.Failed) {\n        require(amounts[msg.sender] > 0 , \"Nothing was contributed\");\n        uint contributed = amounts[msg.sender];\n        amounts[msg.sender] = 0;\n        if(!msg.sender.send(contributed))\n        {\n            amounts[msg.sender] = contributed;\n        }\n    }\n    function finishCrowdFunding() public inState(State.Ongoing) {\n        require(!beforeDeadline() , \"Cannot finish campaign before a deadline\");\n        if(!collected)\n        {\n            state = State.Failed;\n        }\n        else\n        {\n            state = State.Succeeded;\n        }\n        emit CampaignFinished(msg.sender, totalCollected, collected);\n    }\n    function currentTime() virtual internal view returns (uint) {\n        return block.timestamp;\n    }\n    function getBlockTime() public view returns (uint) {\n        return block.timestamp;\n    }\n    function beforeDeadline() public view returns (bool) {\n        return currentTime() < fundingDeadline; \n    }\n}",
  "sourcePath": "/home/mlibre/hard/projects/blockchain/Ethereum/truffle/contracts/CrowdFundingWithDeadline.sol",
  "compiler": {
    "name": "solc",
    "version": "0.7.0+commit.9e61f92b.Emscripten.clang"
  },
  "schemaVersion": "3.2.4",
  "updatedAt": "2020-09-21T18:24:10.618Z",
  "networkType": "ethereum",
  "devdoc": {
    "kind": "dev",
    "methods": {},
    "version": 1
  },
  "userdoc": {
    "kind": "user",
    "methods": {},
    "version": 1
  }
}