{
  "contractName": "MultiSigWallet",
  "abi": [
    {
      "inputs": [
        {
          "internalType": "address payable",
          "name": "_beneficiary",
          "type": "address"
        },
        {
          "internalType": "address[]",
          "name": "_approvers",
          "type": "address[]"
        },
        {
          "internalType": "uint256",
          "name": "_minApprovers",
          "type": "uint256"
        }
      ],
      "payable": true,
      "stateMutability": "payable",
      "type": "constructor"
    },
    {
      "constant": false,
      "inputs": [],
      "name": "reject",
      "outputs": [],
      "payable": false,
      "stateMutability": "nonpayable",
      "type": "function"
    },
    {
      "constant": false,
      "inputs": [],
      "name": "approve",
      "outputs": [],
      "payable": false,
      "stateMutability": "nonpayable",
      "type": "function"
    },
    {
      "constant": false,
      "inputs": [],
      "name": "remove",
      "outputs": [],
      "payable": false,
      "stateMutability": "nonpayable",
      "type": "function"
    }
  ],
  "bytecode": "0x608060405260405161081c38038061081c8339818101604052610025919081019061024a565b8151811115610069576040517f08c379a0000000000000000000000000000000000000000000000000000000008152600401610060906102f1565b60405180910390fd5b8060008190555082600160006101000a81548173ffffffffffffffffffffffffffffffffffffffff021916908373ffffffffffffffffffffffffffffffffffffffff16021790555033600260006101000a81548173ffffffffffffffffffffffffffffffffffffffff021916908373ffffffffffffffffffffffffffffffffffffffff16021790555060008090505b825181101561017f57600083828151811061010f57fe5b602002602001015190506001600460008373ffffffffffffffffffffffffffffffffffffffff1673ffffffffffffffffffffffffffffffffffffffff16815260200190815260200160002060006101000a81548160ff0219169083151502179055505080806001019150506100f8565b5050505061040a565b600081519050610197816103c5565b92915050565b6000815190506101ac816103dc565b92915050565b600082601f8301126101c357600080fd5b81516101d66101d18261033e565b610311565b915081818352602084019350602081019050838560208402820111156101fb57600080fd5b60005b8381101561022b57816102118882610188565b8452602084019350602083019250506001810190506101fe565b5050505092915050565b600081519050610244816103f3565b92915050565b60008060006060848603121561025f57600080fd5b600061026d8682870161019d565b935050602084015167ffffffffffffffff81111561028a57600080fd5b610296868287016101b2565b92505060406102a786828701610235565b9150509250925092565b60006102be601783610366565b91507f6d6f7265207468616e206d696e20617070726f766572730000000000000000006000830152602082019050919050565b6000602082019050818103600083015261030a816102b1565b9050919050565b6000604051905081810181811067ffffffffffffffff8211171561033457600080fd5b8060405250919050565b600067ffffffffffffffff82111561035557600080fd5b602082029050602081019050919050565b600082825260208201905092915050565b60006103828261039b565b9050919050565b60006103948261039b565b9050919050565b600073ffffffffffffffffffffffffffffffffffffffff82169050919050565b6000819050919050565b6103ce81610377565b81146103d957600080fd5b50565b6103e581610389565b81146103f057600080fd5b50565b6103fc816103bb565b811461040757600080fd5b50565b610403806104196000396000f3fe608060405234801561001057600080fd5b50600436106100415760003560e01c806312424e3f146100465780634dc415de14610050578063a7f437791461005a575b600080fd5b61004e610064565b005b61005861024d565b005b610062610314565b005b600460003373ffffffffffffffffffffffffffffffffffffffff1673ffffffffffffffffffffffffffffffffffffffff16815260200190815260200160002060009054906101000a900460ff166100f0576040517f08c379a00000000000000000000000000000000000000000000000000000000081526004016100e79061038f565b60405180910390fd5b600360003373ffffffffffffffffffffffffffffffffffffffff1673ffffffffffffffffffffffffffffffffffffffff16815260200190815260200160002060009054906101000a900460ff166101ac576005600081548092919060010191905055506001600360003373ffffffffffffffffffffffffffffffffffffffff1673ffffffffffffffffffffffffffffffffffffffff16815260200190815260200160002060006101000a81548160ff0219169083151502179055505b600054600554141561024b57600160009054906101000a900473ffffffffffffffffffffffffffffffffffffffff1673ffffffffffffffffffffffffffffffffffffffff166108fc479081150290604051600060405180830381858888f1935050505050600260009054906101000a900473ffffffffffffffffffffffffffffffffffffffff1673ffffffffffffffffffffffffffffffffffffffff16ff5b565b600460003373ffffffffffffffffffffffffffffffffffffffff1673ffffffffffffffffffffffffffffffffffffffff16815260200190815260200160002060009054906101000a900460ff166102d9576040517f08c379a00000000000000000000000000000000000000000000000000000000081526004016102d09061038f565b60405180910390fd5b600260009054906101000a900473ffffffffffffffffffffffffffffffffffffffff1673ffffffffffffffffffffffffffffffffffffffff16ff5b600260009054906101000a900473ffffffffffffffffffffffffffffffffffffffff1673ffffffffffffffffffffffffffffffffffffffff16ff5b600061035c600f836103af565b91507f6e6f7420616e20617070726f76657200000000000000000000000000000000006000830152602082019050919050565b600060208201905081810360008301526103a88161034f565b9050919050565b60008282526020820190509291505056fea365627a7a72315820203a4d45eb7de23802dcae3956e2689255f880f0eeaa86e9f0720b8df1955bfd6c6578706572696d656e74616cf564736f6c63430005100040",
  "source": "// SPDX-License-Identifier: GPL-3.0\npragma solidity >=0.4.22 <0.8.0;\npragma experimental ABIEncoderV2;\n\ncontract MultiSigWallet {\n    uint minApprovers;\n    address payable beneficiary;\n    address payable owner;\n    \n    mapping (address => bool) approvedBy;\n    mapping (address => bool) isApprover;\n    uint approvalsNum;\n    \n    constructor(\n        address payable _beneficiary,\n        address[] memory _approvers,\n        uint _minApprovers\n        ) public payable {\n            require(_minApprovers <= _approvers.length , \"more than min approvers\");\n            minApprovers = _minApprovers;\n            beneficiary = _beneficiary;\n            owner = msg.sender;\n            for(uint i = 0 ; i < _approvers.length; i++) {\n                address approver = _approvers[i];\n                isApprover[approver] = true;\n            }\n        }\n    function reject() public\n    {\n        require(isApprover[msg.sender] , \"not an approver\");\n        selfdestruct(owner);\n    }\n    function approve() public\n    {\n        require(isApprover[msg.sender] , \"not an approver\");\n        if(!approvedBy[msg.sender])\n        {\n            approvalsNum++;\n            approvedBy[msg.sender] = true;\n        }\n        if(approvalsNum == minApprovers)\n        {\n            beneficiary.send(address(this).balance);\n            selfdestruct(owner);\n        }\n    }\n\n    function remove() public {\n        selfdestruct(owner);\n    }\n}",
  "sourcePath": "/home/mlibre/hard/projects/blockchain/Ethereum/truffle/contracts/Multi-sig-wallet.sol",
  "compiler": {
    "name": "solc",
    "version": "0.5.16+commit.9c3226ce.Emscripten.clang"
  },
  "schemaVersion": "3.2.4",
  "updatedAt": "2020-09-12T17:20:40.854Z",
  "devdoc": {
    "methods": {}
  },
  "userdoc": {
    "methods": {}
  }
}