{
  "contractName": "TestCrowdFundingWithDeadline",
  "abi": [
    {
      "inputs": [
        {
          "internalType": "string",
          "name": "contractName",
          "type": "string"
        },
        {
          "internalType": "uint256",
          "name": "targetAmountEth",
          "type": "uint256"
        },
        {
          "internalType": "uint256",
          "name": "durationInMin",
          "type": "uint256"
        },
        {
          "internalType": "address payable",
          "name": "beneficiaryAddress",
          "type": "address"
        }
      ],
      "stateMutability": "nonpayable",
      "type": "constructor"
    },
    {
      "anonymous": false,
      "inputs": [
        {
          "indexed": false,
          "internalType": "address",
          "name": "addr",
          "type": "address"
        },
        {
          "indexed": false,
          "internalType": "uint256",
          "name": "totalCollected",
          "type": "uint256"
        },
        {
          "indexed": false,
          "internalType": "bool",
          "name": "succeeded",
          "type": "bool"
        }
      ],
      "name": "CampaignFinished",
      "type": "event"
    },
    {
      "inputs": [
        {
          "internalType": "address",
          "name": "",
          "type": "address"
        }
      ],
      "name": "amounts",
      "outputs": [
        {
          "internalType": "uint256",
          "name": "",
          "type": "uint256"
        }
      ],
      "stateMutability": "view",
      "type": "function"
    },
    {
      "inputs": [],
      "name": "beforeDeadline",
      "outputs": [
        {
          "internalType": "bool",
          "name": "",
          "type": "bool"
        }
      ],
      "stateMutability": "view",
      "type": "function"
    },
    {
      "inputs": [],
      "name": "beneficiary",
      "outputs": [
        {
          "internalType": "address payable",
          "name": "",
          "type": "address"
        }
      ],
      "stateMutability": "view",
      "type": "function"
    },
    {
      "inputs": [],
      "name": "collect",
      "outputs": [],
      "stateMutability": "nonpayable",
      "type": "function"
    },
    {
      "inputs": [],
      "name": "collected",
      "outputs": [
        {
          "internalType": "bool",
          "name": "",
          "type": "bool"
        }
      ],
      "stateMutability": "view",
      "type": "function"
    },
    {
      "inputs": [],
      "name": "contribute",
      "outputs": [],
      "stateMutability": "payable",
      "type": "function"
    },
    {
      "inputs": [],
      "name": "finishCrowdFunding",
      "outputs": [],
      "stateMutability": "nonpayable",
      "type": "function"
    },
    {
      "inputs": [],
      "name": "fundingDeadline",
      "outputs": [
        {
          "internalType": "uint256",
          "name": "",
          "type": "uint256"
        }
      ],
      "stateMutability": "view",
      "type": "function"
    },
    {
      "inputs": [],
      "name": "getBlockTime",
      "outputs": [
        {
          "internalType": "uint256",
          "name": "",
          "type": "uint256"
        }
      ],
      "stateMutability": "view",
      "type": "function"
    },
    {
      "inputs": [],
      "name": "name",
      "outputs": [
        {
          "internalType": "string",
          "name": "",
          "type": "string"
        }
      ],
      "stateMutability": "view",
      "type": "function"
    },
    {
      "inputs": [],
      "name": "state",
      "outputs": [
        {
          "internalType": "enum CrowdFundingWithDeadline.State",
          "name": "",
          "type": "uint8"
        }
      ],
      "stateMutability": "view",
      "type": "function"
    },
    {
      "inputs": [],
      "name": "targetAmount",
      "outputs": [
        {
          "internalType": "uint256",
          "name": "",
          "type": "uint256"
        }
      ],
      "stateMutability": "view",
      "type": "function"
    },
    {
      "inputs": [],
      "name": "totalCollected",
      "outputs": [
        {
          "internalType": "uint256",
          "name": "",
          "type": "uint256"
        }
      ],
      "stateMutability": "view",
      "type": "function"
    },
    {
      "inputs": [],
      "name": "withdraw",
      "outputs": [],
      "stateMutability": "nonpayable",
      "type": "function"
    },
    {
      "inputs": [
        {
          "internalType": "uint256",
          "name": "newTime",
          "type": "uint256"
        }
      ],
      "name": "setCurrentTime",
      "outputs": [],
      "stateMutability": "nonpayable",
      "type": "function"
    }
  ],
  "bytecode": "0x60806040523480156200001157600080fd5b506040516200103d3803806200103d833981810160405260808110156200003757600080fd5b81019080805160405193929190846401000000008211156200005857600080fd5b838201915060208201858111156200006f57600080fd5b82518660018202830111640100000000821117156200008d57600080fd5b8083526020830192505050908051906020019080838360005b83811015620000c3578082015181840152602081019050620000a6565b50505050905090810190601f168015620000f15780820380516001836020036101000a031916815260200191505b5060405260200180519060200190929190805190602001909291908051906020019092919050505083838383836000908051906020019062000135929190620002eb565b5073__Utils_________________________________63d8916bb9846040518263ffffffff1660e01b81526004018082815260200191505060206040518083038186803b1580156200018657600080fd5b505af41580156200019b573d6000803e3d6000fd5b505050506040513d6020811015620001b257600080fd5b810190808051906020019092919050505060018190555073__Utils_________________________________63cd6fb042836040518263ffffffff1660e01b81526004018082815260200191505060206040518083038186803b1580156200021957600080fd5b505af41580156200022e573d6000803e3d6000fd5b505050506040513d60208110156200024557600080fd5b810190808051906020019092919050505062000266620002e160201b60201c565b0160028190555080600360006101000a81548173ffffffffffffffffffffffffffffffffffffffff021916908373ffffffffffffffffffffffffffffffffffffffff1602179055506000600360146101000a81548160ff02191690836003811115620002ce57fe5b0217905550505050505050505062000391565b6000600754905090565b828054600181600116156101000203166002900490600052602060002090601f016020900481019282601f106200032e57805160ff19168380011785556200035f565b828001600101855582156200035f579182015b828111156200035e57825182559160200191906001019062000341565b5b5090506200036e919062000372565b5090565b5b808211156200038d57600081600090555060010162000373565b5090565b610c9c80620003a16000396000f3fe6080604052600436106100e85760003560e01c8063796b23bb1161008a578063c19d93fb11610059578063c19d93fb14610367578063d7bb99ba1461039d578063e29eb836146103a7578063e5225381146103d2576100e8565b8063796b23bb146102b957806384bcefd4146102e457806387ceff0914610311578063953b8fb81461033c576100e8565b806338af3eed116100c657806338af3eed146101cf5780633ccfd60b1461021057806355a3b2c11461022757806368bc00411461028c576100e8565b806306fdde03146100ed578063083dca111461017d57806322f8e56614610194575b600080fd5b3480156100f957600080fd5b506101026103e9565b6040518080602001828103825283818151815260200191508051906020019080838360005b83811015610142578082015181840152602081019050610127565b50505050905090810190601f16801561016f5780820380516001836020036101000a031916815260200191505b509250505060405180910390f35b34801561018957600080fd5b50610192610487565b005b3480156101a057600080fd5b506101cd600480360360208110156101b757600080fd5b8101908080359060200190929190505050610656565b005b3480156101db57600080fd5b506101e4610660565b604051808273ffffffffffffffffffffffffffffffffffffffff16815260200191505060405180910390f35b34801561021c57600080fd5b50610225610686565b005b34801561023357600080fd5b506102766004803603602081101561024a57600080fd5b81019080803573ffffffffffffffffffffffffffffffffffffffff1690602001909291905050506108e2565b6040518082815260200191505060405180910390f35b34801561029857600080fd5b506102a16108fa565b60405180821515815260200191505060405180910390f35b3480156102c557600080fd5b506102ce61090d565b6040518082815260200191505060405180910390f35b3480156102f057600080fd5b506102f9610913565b60405180821515815260200191505060405180910390f35b34801561031d57600080fd5b50610326610926565b6040518082815260200191505060405180910390f35b34801561034857600080fd5b5061035161092e565b6040518082815260200191505060405180910390f35b34801561037357600080fd5b5061037c610934565b6040518082600381111561038c57fe5b815260200191505060405180910390f35b6103a5610947565b005b3480156103b357600080fd5b506103bc610ae4565b6040518082815260200191505060405180910390f35b3480156103de57600080fd5b506103e7610aea565b005b60008054600181600116156101000203166002900480601f01602080910402602001604051908101604052809291908181526020018280546001816001161561010002031660029004801561047f5780601f106104545761010080835404028352916020019161047f565b820191906000526020600020905b81548152906001019060200180831161046257829003601f168201915b505050505081565b600080600381111561049557fe5b600360149054906101000a900460ff1660038111156104b057fe5b14610523576040517f08c379a000000000000000000000000000000000000000000000000000000000815260040180806020018281038252600c8152602001807f496e76616c69642053617465000000000000000000000000000000000000000081525060200191505060405180910390fd5b61052b6108fa565b15610581576040517f08c379a0000000000000000000000000000000000000000000000000000000008152600401808060200182810382526028815260200180610c3f6028913960400191505060405180910390fd5b600560009054906101000a900460ff166105be576001600360146101000a81548160ff021916908360038111156105b457fe5b02179055506105e3565b6002600360146101000a81548160ff021916908360038111156105dd57fe5b02179055505b7f6fa7e87ebbd87ed4f1c40bba63144f68fd2bb022fb748ab3b61b5411c39bd47433600654600560009054906101000a900460ff16604051808473ffffffffffffffffffffffffffffffffffffffff1681526020018381526020018215158152602001935050505060405180910390a150565b8060078190555050565b600360009054906101000a900473ffffffffffffffffffffffffffffffffffffffff1681565b600180600381111561069457fe5b600360149054906101000a900460ff1660038111156106af57fe5b14610722576040517f08c379a000000000000000000000000000000000000000000000000000000000815260040180806020018281038252600c8152602001807f496e76616c69642053617465000000000000000000000000000000000000000081525060200191505060405180910390fd5b6000600460003373ffffffffffffffffffffffffffffffffffffffff1673ffffffffffffffffffffffffffffffffffffffff16815260200190815260200160002054116107d7576040517f08c379a00000000000000000000000000000000000000000000000000000000081526004018080602001828103825260178152602001807f4e6f7468696e672077617320636f6e747269627574656400000000000000000081525060200191505060405180910390fd5b6000600460003373ffffffffffffffffffffffffffffffffffffffff1673ffffffffffffffffffffffffffffffffffffffff1681526020019081526020016000205490506000600460003373ffffffffffffffffffffffffffffffffffffffff1673ffffffffffffffffffffffffffffffffffffffff168152602001908152602001600020819055503373ffffffffffffffffffffffffffffffffffffffff166108fc829081150290604051600060405180830381858888f193505050506108de5780600460003373ffffffffffffffffffffffffffffffffffffffff1673ffffffffffffffffffffffffffffffffffffffff168152602001908152602001600020819055505b5050565b60046020528060005260406000206000915090505481565b6000600254610907610c34565b10905090565b60025481565b600560009054906101000a900460ff1681565b600042905090565b60015481565b600360149054906101000a900460ff1681565b600080600381111561095557fe5b600360149054906101000a900460ff16600381111561097057fe5b146109e3576040517f08c379a000000000000000000000000000000000000000000000000000000000815260040180806020018281038252600c8152602001807f496e76616c69642053617465000000000000000000000000000000000000000081525060200191505060405180910390fd5b6109eb6108fa565b610a5d576040517f08c379a00000000000000000000000000000000000000000000000000000000081526004018080602001828103825260088152602001807f446561644c696e6500000000000000000000000000000000000000000000000081525060200191505060405180910390fd5b34600460003373ffffffffffffffffffffffffffffffffffffffff1673ffffffffffffffffffffffffffffffffffffffff168152602001908152602001600020600082825401925050819055503460066000828254019250508190555060015460065410610ae1576001600560006101000a81548160ff0219169083151502179055505b50565b60065481565b6002806003811115610af857fe5b600360149054906101000a900460ff166003811115610b1357fe5b14610b86576040517f08c379a000000000000000000000000000000000000000000000000000000000815260040180806020018281038252600c8152602001807f496e76616c69642053617465000000000000000000000000000000000000000081525060200191505060405180910390fd5b600360009054906101000a900473ffffffffffffffffffffffffffffffffffffffff1673ffffffffffffffffffffffffffffffffffffffff166108fc6006549081150290604051600060405180830381858888f1935050505015610c0c5760038060146101000a81548160ff02191690836003811115610c0257fe5b0217905550610c31565b6001600360146101000a81548160ff02191690836003811115610c2b57fe5b02179055505b50565b600060075490509056fe43616e6e6f742066696e6973682063616d706169676e206265666f7265206120646561646c696e65a2646970667358221220a56b4fbae268b622ea18d6a265f08e969224386212b6bf5023976e7a0d370de264736f6c63430007000033",
  "immutableReferences": {},
  "source": "// SPDX-License-Identifier: GPL-3.0\npragma solidity >=0.5.0 <0.8.0;\n\nimport './CrowdFundingWithDeadline.sol';\n\ncontract TestCrowdFundingWithDeadline is CrowdFundingWithDeadline {\n    uint time;\n    constructor (\n        string memory contractName,\n        uint targetAmountEth,\n        uint durationInMin,\n        address payable beneficiaryAddress )\n        CrowdFundingWithDeadline (\n            contractName, targetAmountEth, durationInMin, beneficiaryAddress\n            ) public {}\n    function currentTime() internal override view returns (uint) {\n        return time;\n    }\n    function setCurrentTime(uint newTime) public {\n        time = newTime;\n    }\n}",
  "sourcePath": "/home/mlibre/hard/projects/blockchain/Ethereum/truffle/contracts/TestCrowdFundingWithDeadline.sol",
  "compiler": {
    "name": "solc",
    "version": "0.7.0+commit.9e61f92b.Emscripten.clang"
  },
  "schemaVersion": "3.2.4",
  "updatedAt": "2020-09-21T18:24:10.230Z",
  "networkType": "ethereum",
  "devdoc": {
    "kind": "dev",
    "methods": {},
    "version": 1
  },
  "userdoc": {
    "kind": "user",
    "methods": {},
    "version": 1
  }
}