{
  "contractName": "Utils",
  "abi": [
    {
      "inputs": [
        {
          "internalType": "uint256",
          "name": "sumInEth",
          "type": "uint256"
        }
      ],
      "name": "etherToWei",
      "outputs": [
        {
          "internalType": "uint256",
          "name": "",
          "type": "uint256"
        }
      ],
      "stateMutability": "pure",
      "type": "function",
      "constant": true
    },
    {
      "inputs": [
        {
          "internalType": "uint256",
          "name": "timeInMin",
          "type": "uint256"
        }
      ],
      "name": "minToSec",
      "outputs": [
        {
          "internalType": "uint256",
          "name": "",
          "type": "uint256"
        }
      ],
      "stateMutability": "pure",
      "type": "function",
      "constant": true
    }
  ],
  "bytecode": "0x610185610026600b82828239805160001a60731461001957fe5b30600052607381538281f3fe73000000000000000000000000000000000000000030146080604052600436106100405760003560e01c8063cd6fb04214610045578063d8916bb914610075575b600080fd5b61005f600480360381019061005a91906100db565b6100a5565b60405161006c9190610113565b60405180910390f35b61008f600480360381019061008a91906100db565b6100b2565b60405161009c9190610113565b60405180910390f35b6000603c82029050919050565b6000670de0b6b3a764000082029050919050565b6000813590506100d581610138565b92915050565b6000602082840312156100ed57600080fd5b60006100fb848285016100c6565b91505092915050565b61010d8161012e565b82525050565b60006020820190506101286000830184610104565b92915050565b6000819050919050565b6101418161012e565b811461014c57600080fd5b5056fea26469706673582212206a3c999995c5f91e9de89d8c44e6af030d968561a8b2fe4e7e096abce7a9aedb64736f6c63430007000033",
  "immutableReferences": {},
  "source": "// SPDX-License-Identifier: GPL-3.0\npragma solidity >=0.6 <0.8.0;\npragma experimental ABIEncoderV2;\n\nlibrary Utils {\n    function etherToWei(uint sumInEth) public pure returns(uint) {\n\t\t return sumInEth * 1 ether;\n\t }\n\t function minToSec(uint timeInMin) public pure returns(uint) {\n\t\t return timeInMin * 1 minutes;\n\t }\n}",
  "sourcePath": "/home/mlibre/hard/projects/blockchain/Ethereum/truffle/contracts/Utils.sol",
  "compiler": {
    "name": "solc",
    "version": "0.7.0+commit.9e61f92b.Emscripten.clang"
  },
  "schemaVersion": "3.2.4",
  "updatedAt": "2020-09-21T18:24:10.227Z",
  "networkType": "ethereum",
  "devdoc": {
    "kind": "dev",
    "methods": {},
    "version": 1
  },
  "userdoc": {
    "kind": "user",
    "methods": {},
    "version": 1
  }
}