{
  "contractName": "Voter",
  "abi": [
    {
      "constant": true,
      "inputs": [
        {
          "internalType": "uint256",
          "name": "",
          "type": "uint256"
        }
      ],
      "name": "options",
      "outputs": [
        {
          "internalType": "string",
          "name": "",
          "type": "string"
        }
      ],
      "payable": false,
      "stateMutability": "view",
      "type": "function"
    },
    {
      "constant": true,
      "inputs": [
        {
          "internalType": "uint256",
          "name": "",
          "type": "uint256"
        }
      ],
      "name": "votes",
      "outputs": [
        {
          "internalType": "uint256",
          "name": "",
          "type": "uint256"
        }
      ],
      "payable": false,
      "stateMutability": "view",
      "type": "function"
    },
    {
      "constant": false,
      "inputs": [
        {
          "internalType": "uint256",
          "name": "option",
          "type": "uint256"
        }
      ],
      "name": "vote",
      "outputs": [],
      "payable": false,
      "stateMutability": "nonpayable",
      "type": "function"
    },
    {
      "constant": false,
      "inputs": [
        {
          "internalType": "string",
          "name": "optionName",
          "type": "string"
        }
      ],
      "name": "vote",
      "outputs": [],
      "payable": false,
      "stateMutability": "nonpayable",
      "type": "function"
    },
    {
      "constant": true,
      "inputs": [],
      "name": "getOptions",
      "outputs": [
        {
          "internalType": "string[]",
          "name": "",
          "type": "string[]"
        }
      ],
      "payable": false,
      "stateMutability": "view",
      "type": "function"
    },
    {
      "constant": true,
      "inputs": [],
      "name": "getVotes",
      "outputs": [
        {
          "internalType": "uint256[]",
          "name": "",
          "type": "uint256[]"
        }
      ],
      "payable": false,
      "stateMutability": "view",
      "type": "function"
    },
    {
      "constant": false,
      "inputs": [],
      "name": "remove",
      "outputs": [],
      "payable": false,
      "stateMutability": "nonpayable",
      "type": "function"
    },
    {
      "constant": false,
      "inputs": [
        {
          "internalType": "string",
          "name": "option",
          "type": "string"
        }
      ],
      "name": "addOption",
      "outputs": [],
      "payable": false,
      "stateMutability": "nonpayable",
      "type": "function"
    },
    {
      "constant": false,
      "inputs": [],
      "name": "startVoting",
      "outputs": [],
      "payable": false,
      "stateMutability": "nonpayable",
      "type": "function"
    }
  ],
  "bytecode": "0x608060405234801561001057600080fd5b50611075806100206000396000f3fe608060405234801561001057600080fd5b50600436106100935760003560e01c80635df81330116100665780635df813301461010c578063a7f437791461013c578063cc2ee19614610146578063edc550dc14610164578063fc36e15b1461018057610093565b80630121b93f146100985780630dc96015146100b45780631ec6b60a146100d2578063409e2205146100dc575b600080fd5b6100b260048036036100ad9190810190610a55565b61019c565b005b6100bc61030e565b6040516100c99190610ddc565b60405180910390f35b6100da610366565b005b6100f660048036036100f19190810190610a55565b61048e565b6040516101039190610dfe565b60405180910390f35b61012660048036036101219190810190610a55565b610547565b6040516101339190610e80565b60405180910390f35b610144610568565b005b61014e610595565b60405161015b9190610dba565b60405180910390f35b61017e60048036036101799190810190610a14565b61067e565b005b61019a60048036036101959190810190610a14565b6106da565b005b600081101580156101b1575060018054905081105b6101f0576040517f08c379a00000000000000000000000000000000000000000000000000000000081526004016101e790610e40565b60405180910390fd5b600260003373ffffffffffffffffffffffffffffffffffffffff1673ffffffffffffffffffffffffffffffffffffffff16815260200190815260200160002060009054906101000a900460ff161561027d576040517f08c379a000000000000000000000000000000000000000000000000000000000815260040161027490610e20565b60405180910390fd5b60016000828154811061028c57fe5b906000526020600020015401600082815481106102a557fe5b90600052602060002001819055506001600260003373ffffffffffffffffffffffffffffffffffffffff1673ffffffffffffffffffffffffffffffffffffffff16815260200190815260200160002060006101000a81548160ff02191690831515021790555050565b6060600080548060200260200160405190810160405280929190818152602001828054801561035c57602002820191906000526020600020905b815481526020019060010190808311610348575b5050505050905090565b600460009054906101000a900460ff161561038057600080fd5b6001805490506040519080825280602002602001820160405280156103b45781602001602082028038833980820191505090505b50600090805190602001906103ca92919061089d565b5060008090505b600180549050811015610470576103e66108ea565b60405180604001604052808381526020016001151581525090508060036001848154811061041057fe5b906000526020600020016040516104279190610da3565b90815260200160405180910390206000820151816000015560208201518160010160006101000a81548160ff0219169083151502179055509050505080806001019150506103d1565b506001600460006101000a81548160ff021916908315150217905550565b6001818154811061049b57fe5b906000526020600020016000915090508054600181600116156101000203166002900480601f01602080910402602001604051908101604052809291908181526020018280546001816001161561010002031660029004801561053f5780601f106105145761010080835404028352916020019161053f565b820191906000526020600020905b81548152906001019060200180831161052257829003601f168201915b505050505081565b6000818154811061055457fe5b906000526020600020016000915090505481565b73c9b64496986e7b6d4a68fdf69ef132a35e91838e73ffffffffffffffffffffffffffffffffffffffff16ff5b60606001805480602002602001604051908101604052809291908181526020016000905b82821015610675578382906000526020600020018054600181600116156101000203166002900480601f0160208091040260200160405190810160405280929190818152602001828054600181600116156101000203166002900480156106615780601f1061063657610100808354040283529160200191610661565b820191906000526020600020905b81548152906001019060200180831161064457829003601f168201915b5050505050815260200190600101906105b9565b50505050905090565b600460009054906101000a900460ff161561069857600080fd5b60018190806001815401808255809150509060018203906000526020600020016000909192909190915090805190602001906106d5929190610906565b505050565b600260003373ffffffffffffffffffffffffffffffffffffffff1673ffffffffffffffffffffffffffffffffffffffff16815260200190815260200160002060009054906101000a900460ff1615610767576040517f08c379a000000000000000000000000000000000000000000000000000000000815260040161075e90610e20565b60405180910390fd5b61076f6108ea565b60038260405161077f9190610d8c565b9081526020016040518091039020604051806040016040529081600082015481526020016001820160009054906101000a900460ff16151515158152505090508060200151610803576040517f08c379a00000000000000000000000000000000000000000000000000000000081526004016107fa90610e60565b60405180910390fd5b6001600082600001518154811061081657fe5b906000526020600020015401600082600001518154811061083357fe5b90600052602060002001819055506001600260003373ffffffffffffffffffffffffffffffffffffffff1673ffffffffffffffffffffffffffffffffffffffff16815260200190815260200160002060006101000a81548160ff0219169083151502179055505050565b8280548282559060005260206000209081019282156108d9579160200282015b828111156108d85782518255916020019190600101906108bd565b5b5090506108e69190610986565b5090565b6040518060400160405280600081526020016000151581525090565b828054600181600116156101000203166002900490600052602060002090601f016020900481019282601f1061094757805160ff1916838001178555610975565b82800160010185558215610975579182015b82811115610974578251825591602001919060010190610959565b5b5090506109829190610986565b5090565b6109a891905b808211156109a457600081600090555060010161098c565b5090565b90565b600082601f8301126109bc57600080fd5b81356109cf6109ca82610ec8565b610e9b565b915080825260208301602083018583830111156109eb57600080fd5b6109f6838284610fc8565b50505092915050565b600081359050610a0e8161101b565b92915050565b600060208284031215610a2657600080fd5b600082013567ffffffffffffffff811115610a4057600080fd5b610a4c848285016109ab565b91505092915050565b600060208284031215610a6757600080fd5b6000610a75848285016109ff565b91505092915050565b6000610a8a8383610bae565b905092915050565b6000610a9e8383610d6e565b60208301905092915050565b6000610ab582610f29565b610abf8185610f6f565b935083602082028501610ad185610ef4565b8060005b85811015610b0d5784840389528151610aee8582610a7e565b9450610af983610f55565b925060208a01995050600181019050610ad5565b50829750879550505050505092915050565b6000610b2a82610f34565b610b348185610f80565b9350610b3f83610f04565b8060005b83811015610b70578151610b578882610a92565b9750610b6283610f62565b925050600181019050610b43565b5085935050505092915050565b6000610b8882610f4a565b610b928185610fb3565b9350610ba2818560208601610fd7565b80840191505092915050565b6000610bb982610f3f565b610bc38185610f91565b9350610bd3818560208601610fd7565b610bdc8161100a565b840191505092915050565b6000610bf282610f3f565b610bfc8185610fa2565b9350610c0c818560208601610fd7565b610c158161100a565b840191505092915050565b600081546001811660008114610c3d5760018114610c6257610ca6565b607f6002830416610c4e8187610fb3565b955060ff1983168652808601935050610ca6565b60028204610c708187610fb3565b9550610c7b85610f14565b60005b82811015610c9d57815481890152600182019150602081019050610c7e565b82880195505050505b505092915050565b6000610cbb600d83610fa2565b91507f416c726561647920766f746564000000000000000000000000000000000000006000830152602082019050919050565b6000610cfb600e83610fa2565b91507f696e76616c6964206f7074696f6e0000000000000000000000000000000000006000830152602082019050919050565b6000610d3b601583610fa2565b91507f4f7074696f6e20646f6573206e6f7420657869737400000000000000000000006000830152602082019050919050565b610d7781610fbe565b82525050565b610d8681610fbe565b82525050565b6000610d988284610b7d565b915081905092915050565b6000610daf8284610c20565b915081905092915050565b60006020820190508181036000830152610dd48184610aaa565b905092915050565b60006020820190508181036000830152610df68184610b1f565b905092915050565b60006020820190508181036000830152610e188184610be7565b905092915050565b60006020820190508181036000830152610e3981610cae565b9050919050565b60006020820190508181036000830152610e5981610cee565b9050919050565b60006020820190508181036000830152610e7981610d2e565b9050919050565b6000602082019050610e956000830184610d7d565b92915050565b6000604051905081810181811067ffffffffffffffff82111715610ebe57600080fd5b8060405250919050565b600067ffffffffffffffff821115610edf57600080fd5b601f19601f8301169050602081019050919050565b6000819050602082019050919050565b6000819050602082019050919050565b60008190508160005260206000209050919050565b600081519050919050565b600081519050919050565b600081519050919050565b600081519050919050565b6000602082019050919050565b6000602082019050919050565b600082825260208201905092915050565b600082825260208201905092915050565b600082825260208201905092915050565b600082825260208201905092915050565b600081905092915050565b6000819050919050565b82818337600083830152505050565b60005b83811015610ff5578082015181840152602081019050610fda565b83811115611004576000848401525b50505050565b6000601f19601f8301169050919050565b61102481610fbe565b811461102f57600080fd5b5056fea365627a7a723158202a56a61f47e9c7ca92dd9573b08785b29c1094394732e0ca1bc8ff643670f1216c6578706572696d656e74616cf564736f6c63430005100040",
  "source": "// SPDX-License-Identifier: GPL-3.0\npragma solidity >=0.4.22 <0.8.0;\npragma experimental ABIEncoderV2;\n\ncontract Voter {\n    struct OptionPos\n    {\n        uint pos;\n        bool exsit;\n    }\n    uint[] public votes;\n    string[] public options;\n    mapping (address => bool) hasVoted;\n    mapping (string => OptionPos) posOfOption; \n    \n    // with experimental\n    // constructor(string[] memory _options) public {\n    //     options = _options;\n    //     votes = new uint[](options.length);\n    //     for(uint i = 0 ; i < options.length; i++){\n    //         OptionPos memory optionPos = OptionPos(i,true);\n    //         string memory optionName = options[i];\n    //         posOfOption[optionName] = optionPos;\n    //     }\n    // }\n    function vote(uint option) public\n    {\n        require(option >= 0 && option < options.length , \"invalid option\");\n        require(!hasVoted[msg.sender] , \"Already voted\");\n        votes[option] = votes[option] + 1;\n        hasVoted[msg.sender] = true;\n    }\n    function vote(string memory optionName) public\n    {\n        require(!hasVoted[msg.sender] , \"Already voted\");\n        OptionPos memory optionPos = posOfOption[optionName];\n        require(optionPos.exsit , \"Option does not exist\");\n        votes[optionPos.pos] = votes[optionPos.pos] + 1;\n        hasVoted[msg.sender] = true;\n    }\n    function getOptions() public view returns(string[] memory)\n    {\n     return options;   \n    }\n    function getVotes() public view returns(uint[] memory)\n    {\n        return votes;\n    }\n\n    function remove() public {\n        selfdestruct(0xc9b64496986E7b6D4A68fDF69eF132A35e91838e);\n    }\n\n    // without exprimental\n    bool vottingStarted;\n    function addOption(string memory option) public {\n        require(!vottingStarted);\n        options.push(option);\n    }\n    function startVoting() public{\n        require(!vottingStarted);\n        votes = new uint[](options.length);\n        for(uint i = 0 ; i < options.length; i++){\n            OptionPos memory optionPos = OptionPos(i,true);\n            posOfOption[options[i]] = optionPos;\n        }\n        vottingStarted = true;\n    }\n}",
  "sourcePath": "/home/mlibre/hard/projects/blockchain/Ethereum/truffle/contracts/Voter.sol",
  "compiler": {
    "name": "solc",
    "version": "0.5.16+commit.9c3226ce.Emscripten.clang"
  },
  "schemaVersion": "3.2.4",
  "updatedAt": "2020-09-18T13:40:43.983Z",
  "networkType": "ethereum",
  "devdoc": {
    "methods": {}
  },
  "userdoc": {
    "methods": {}
  }
}